:100000000C9440000C9452000C9452000C9452003A
:100010000C9452000C9452000C9452000C94520018
:100020000C9452000C9452000C94AA010C945200AF
:100030000C9452000C9452000C9452000C945200F8
:100040000C9452000C9452000C9452000C945200E8
:100050000C94520076017B018001670167018501E4
:100060006701670167016701670167016701670150
:1000700067016701900195019A01670167019F017E
:1000800011241FBECFE5D8E0DEBFCDBF20E0A0E643
:10009000B0E001C01D92A636B207E1F70E944F0101
:1000A0000C9457030C9400003E9A3F9A379A329A68
:1000B000319A0895369A349BFECF349A84B125B193
:1000C00090E0922B0895823419F118F4813439F0BC
:1000D00008958334B1F1843409F44CC0089541305B
:1000E00059F42AB381E090E002C0880F991F6A9505
:1000F000E2F7822B8ABB08952AB381E090E002C028
:10010000880F991F6A95E2F7809582238ABB08952C
:10011000413059F427B381E090E002C0880F991F65
:100120006A95E2F7822B87BB089527B381E090E0C0
:1001300002C0880F991F6A95E2F78095822387BBDA
:100140000895413059F424B381E090E002C0880F53
:10015000991F6A95E2F7822B84BB089524B381E04E
:1001600090E002C0880F991F6A95E2F7809582237C
:1001700084BB0895413059F421B381E090E002C07E
:10018000880F991F6A95E2F7822B81BB089521B3EE
:1001900081E090E002C0880F991F6A95E2F7809590
:1001A000822381BB0895823419F118F4813439F027
:1001B00008958334B1F1843409F44CC0089541307A
:1001C00059F42BB381E090E002C0880F991F6A9523
:1001D000E2F7822B8BBB08952BB381E090E002C045
:1001E000880F991F6A95E2F7809582238BBB08954B
:1001F000413059F428B381E090E002C0880F991F84
:100200006A95E2F7822B88BB089528B381E090E0DD
:1002100002C0880F991F6A95E2F78095822388BBF8
:100220000895413059F425B381E090E002C0880F71
:10023000991F6A95E2F7822B85BB089525B381E06B
:1002400090E002C0880F991F6A95E2F7809582239B
:1002500085BB0895413059F422B381E090E002C09B
:10026000880F991F6A95E2F7822B82BB089522B30B
:1002700081E090E002C0880F991F6A95E2F78095AF
:10028000822382BB089541E00E946300089541E00B
:100290000E94D300089540E00E94D30008950E9478
:1002A00054000E9407020E94FF0162E084E40E9461
:1002B000430164E084E40E94430165E084E40E9419
:1002C000430166E084E40E944301C1E0D0E08FEF87
:1002D0000E9402028093650090E0FC01B197E63134
:1002E000F105A8F7E65DFF4F0C94510364E084E448
:1002F0000E944701ECCF65E084E40E944701E7CF0C
:1003000066E084E40E944701E2CF0E94070262E0B7
:1003100084E40E944701D0936100C0936000D7CF6E
:1003200064E084E40E944B01D2CF65E084E40E9443
:100330004B01CDCF66E084E40E944B01C8CF0E9400
:100340001D0262E084E40E944B0110926100109251
:100350006000BDCF1F920F920FB60F9211242F9302
:100360003F934F935F936F937F938F939F93AF933D
:10037000BF93EF93FF93809162008F5F8093620041
:10038000809162008A3050F110926200809160008A
:1003900090916100892B11F10E945A00BC0180E00C
:1003A00090E00E94560220E030E040E85EE30E94C8
:1003B000E4020E94270270936400609363008091BE
:1003C000630090916400489728F462E084E40E94FE
:1003D0004B0104C062E084E40E944701FF91EF9169
:1003E000BF91AF919F918F917F916F915F914F914D
:1003F0003F912F910F900FBE0F901F901895BE9AAE
:100400006E9A08958FB9779BFECF8FB108958EE4D1
:100410008CBF83B7886083BF83B78F7B83BF83B76D
:10042000816083BF83B78D7F83BF83B7846083BFC1
:10043000789489B7826089BF089583B78E7F83BF20
:1004400083B78D7F83BF83B78B7F83BF08950E945F
:10045000C30288F09F5798F0B92F9927B751B0F091
:10046000E1F0660F771F881F991F1AF0BA95C9F738
:1004700014C0B13091F00E94DD02B1E008950C94F7
:10048000DD02672F782F8827B85F39F0B93FCCF3AA
:10049000869577956795B395D9F73EF490958095B5
:1004A000709561957F4F8F4F9F4F0895E89409C0D5
:1004B00097FB3EF490958095709561957F4F8F4F97
:1004C0009F4F9923A9F0F92F96E9BB279395F695AD
:1004D000879577956795B795F111F8CFFAF4BB0F2B
:1004E00011F460FF1BC06F5F7F4F8F4F9F4F16C08F
:1004F000882311F096E911C0772321F09EE8872F19
:10050000762F05C0662371F096E8862F70E060E0D4
:100510002AF09A95660F771F881FDAF7880F96954D
:10052000879597F9089597F99F6780E870E060E0F4
:1005300008959FEF80EC089500240A94161617067C
:1005400018060906089500240A94121613061406C4
:1005500005060895092E0394000C11F4882352F027
:10056000BB0F40F4BF2B11F460FF04C06F5F7F4FDF
:100570008F4F9F4F089557FD9058440F551F59F0C6
:100580005F3F71F04795880F97FB991F61F09F3F80
:1005900079F087950895121613061406551FF2CFA9
:1005A0004695F1DF08C0161617061806991FF1CFF9
:1005B00086957105610508940895E894BB27662720
:1005C0007727CB0197F908950E94F7020C94AA02AD
:1005D0000E949C0238F00E94A30220F0952311F0A3
:1005E0000C9493020C94990211240C94DE020E9444
:1005F000BB0270F3959FC1F3950F50E0551F629FAA
:10060000F001729FBB27F00DB11D639FAA27F00D6B
:10061000B11DAA1F649F6627B00DA11D661F829F92
:100620002227B00DA11D621F739FB00DA11D621F77
:10063000839FA00D611D221F749F3327A00D611D94
:10064000231F849F600D211D822F762F6A2F112476
:100650009F5750409AF0F1F088234AF0EE0FFF1FA9
:10066000BB1F661F771F881F91505040A9F79E3F00
:10067000510580F00C9493020C94DE025F3FE4F38A
:10068000983ED4F3869577956795B795F795E79556
:100690009F5FC1F7FE2B880F911D9695879597F95F
:1006A0000895EE0FFF1F0590F491E02D0994F89442
:0206B000FFCF7A
:00000001FF
