S00E00006D61737465722E737265638A
S11300000C942A000C943F000C943F000C943F0085
S11300100C943F000C943F000C943F000C943F0060
S11300200C943F000C943F000C943F000C943F0050
S11300300C943F000C943F000C943F000C943F0040
S11300400C943F000C943F000C943F000C943F0030
S11300500C943F0011241FBECFE5D8E0DEBFCDBF16
S113006011E0A0E6B0E0E2E6F1E102C005900D92F5
S1130070A03DB107D9F70E9444050C94AF080C9435
S1130080000081E191E00E94A5038F3F19F081E215
S11300900E94880882E191E00E94A5038F3F19F035
S11300A082E20E94880883E191E00E94A5038F3FC9
S11300B019F083E20E94880884E191E00E94A5037C
S11300C08F3F19F086E20E9488080895CF93CFEFFE
S11300D0C093600082E390E00E9498080E94260585
S11300E081E790E00E94170561E082E00E942A0502
S11300F08FE790E00E94170566E082E00E942A05DF
S113010084E890E00E9417056CE082E00E942A05D2
S11301108AE890E00E941705809160008F3F31F4D7
S11301200E943C04809360008F3FD1F384E690E00A
S11301300E949808809160009FEC980F9330E8F437
S1130140813349F486E20E94880861E084E191E009
S11301500E94BC0321C0823349F486E30E948808CC
S11301606FEF84E191E00E94BC0316C08333A1F4D5
S113017084E690E00E9498080FC00E94260582E35E
S113018090E00E94980880E990E00E94170588EEAC
S113019093E00E9498089CCFCF910895CF93CFEF1E
S11301A00E9426058FE990E00E94170561E082E035
S11301B00E942A058FE790E00E94170566E082E01E
S11301C00E942A0584E890E00E9417056BE082E013
S11301D00E942A058DEA90E00E941705C0936000F2
S11301E00E943C04809360008F3FD1F39FEC980FF2
S11301F09330B0F4813349F481E20E94880861E0CD
S113020081E191E00E94BC031CC08233D1F481E3FC
S11302100E9488086FEF81E191E00E94BC0311C045
S11302200E94260582E390E00E94980883EB90E008
S11302300E94170588EE93E00E9498080E94260504
S1130240AFCFCF910895CF93CFEF0E94260582ECD4
S113025090E00E94170561E082E00E942A058FE782
S113026090E00E94170566E082E00E942A0584E877
S113027090E00E9417056BE082E00E942A058DEA57
S113028090E00E941705C09360000E943C04809394
S113029060008F3FD1F39FEC980F9330A8F4813323
S11302A049F482E20E94880861E082E191E00E94C0
S11302B0BC031BC08233C9F40E9488086FEF82E13B
S11302C091E00E94BC0311C00E94260582E390E0E5
S11302D00E94980883EB90E00E94170588EE93E053
S11302E00E9498080E942605B0CFCF910895CF931D
S11302F0CFEF0E94260580ED90E00E94170561E093
S113030082E00E942A058FE790E00E94170566E0CC
S113031082E00E942A0584E890E00E9417056BE0C1
S113032082E00E942A058DEA90E00E941705C0939E
S113033060000E943C04809360008F3FD1F39FECE7
S1130340980F9330B0F4813349F483E20E94880813
S113035061E083E191E00E94BC031CC08233D1F4CC
S113036083E30E9488086FEF83E191E00E94BC035D
S113037011C00E94260582E390E00E94980883EB56
S113038090E00E94170588EE93E00E9498080E946E
S11303902605AFCFCF910895823419F118F4813432
S11303A039F008958334B1F1843409F44CC00895CC
S11303B0413059F42AB381E090E002C0880F991FBC
S11303C06A95E2F7822B8ABB08952AB381E090E014
S11303D002C0880F991F6A95E2F7809582238ABB31
S11303E00895413059F427B381E090E002C0880FAA
S11303F0991F6A95E2F7822B87BB089527B381E0A2
S113040090E002C0880F991F6A95E2F780958223D5
S113041087BB0895413059F424B381E090E002C0D1
S1130420880F991F6A95E2F7822B84BB089524B341
S113043081E090E002C0880F991F6A95E2F78095E9
S1130440822384BB0895413059F421B381E090E0C4
S113045002C0880F991F6A95E2F7822B81BB089529
S113046021B381E090E002C0880F991F6A95E2F7FA
S11304708095822381BB0895823419F118F4813464
S113048039F008958334B1F1843409F44CC00895EB
S1130490413059F42BB381E090E002C0880F991FDA
S11304A06A95E2F7822B8BBB08952BB381E090E031
S11304B002C0880F991F6A95E2F7809582238BBB4F
S11304C00895413059F428B381E090E002C0880FC8
S11304D0991F6A95E2F7822B88BB089528B381E0BF
S11304E090E002C0880F991F6A95E2F780958223F5
S11304F088BB0895413059F425B381E090E002C0EF
S1130500880F991F6A95E2F7822B85BB089525B35E
S113051081E090E002C0880F991F6A95E2F7809508
S1130520822385BB0895413059F422B381E090E0E1
S113053002C0880F991F6A95E2F7822B82BB089547
S113054022B381E090E002C0880F991F6A95E2F718
S11305508095822382BB08958234D9F018F48134C3
S113056031F04DC0833439F18434B9F148C029B332
S113057081E090E0062E02C0880F991F0A94E2F7EA
S113058030E08223932302C0959587956A95E2F71C
S1130590089526B381E090E0062E02C0880F991FCB
S11305A00A94E2F730E08223932302C0959587955D
S11305B06A95E2F7089523B381E090E0062E02C025
S11305C0880F991F0A94E2F730E08223932302C034
S11305D0959587956A95E2F7089520B381E090E0B8
S11305E0062E02C0880F991F0A94E2F730E0822396
S11305F0932302C0959587956A95E2F7089580E064
S11306000895823459F018F4813431F00895833414
S113061039F0843439F008956BBB089568BB0895AC
S113062065BB089562BB0895823461F118F4813486
S113063041F00895833409F446C0843409F464C055
S11306400895413099F480B78B7F80BF2AB381E04D
S113065090E002C0880F991F6A95E2F7982F909551
S113066092239ABB9BB3892B8BBB08952BB381E058
S113067090E002C0880F991F6A95E2F78095822363
S11306808BBB0895413099F480B78B7F80BF27B32B
S113069081E090E002C0880F991F6A95E2F7982FD5
S11306A09095922397BB98B3892B88BB089528B360
S11306B081E090E002C0880F991F6A95E2F7809567
S11306C0822388BB0895413099F480B78B7F80BF23
S11306D024B381E090E002C0880F991F6A95E2F785
S11306E0982F9095922394BB95B3892B85BB08953D
S11306F025B381E090E002C0880F991F6A95E2F764
S11307008095822385BB0895413099F480B78B7F0F
S113071080BF21B381E090E002C0880F991F6A95E1
S1130720E2F7982F9095922391BB92B3892B82BBC9
S1130730089522B381E090E002C0880F991F6A9562
S1130740E2F78095822382BB0895E199FECF8EBBA8
S1130750E09A8DB30895E199FECF4115510559F002
S1130760FB01640F751F8EBBE09A9DB391938F5F5D
S1130770E617F707C1F70895E199FECF8EBBE09A1B
S11307808DB3861719F06DBBE29AE19A089541156D
S1130790510591F0FB01460F571FE199FECF8EBB27
S11307A0E09A2DB39191291719F09DBBE29AE19A31
S11307B08F5FE417F50789F708954423D1F0FC010E
S11307C03081FB012081321316C0FC013196DB011C
S11307D01196415050E04F5F5F4F480F591F04C0BE
S11307E021919D91291309C0E417F507C9F781E008
S11307F0089581E0089580E0089580E0089541E03F
S113080060E083E40E94CC0141E061E083E40E9463
S1130810CC0141E062E083E40E94CC0141E063E06A
S113082083E40E94CC0140E064E083E40E94CC01B4
S113083040E065E083E40E94CC0140E066E083E4AC
S11308400E94CC0140E067E083E40E94CC0141E0D7
S113085064E083E40E94140341E065E083E40E94C1
S1130860140341E066E083E40E94140341E067E07E
S113087083E40E9414030895EF92FF920F931F9351
S1130880CF93DF93CDB7DEB760970FB6F894DEBF92
S11308900FBECDBF80E1E1E6F0E0DE0111960190EC
S11308A00D928A95E1F7E12CF12C0FEF41E060E025
S11308B083E40E943C0241E061E083E40E943C0244
S11308C041E062E083E40E943C0241E063E083E4AF
S11308D00E943C0284E190E00E94980840E06E2D62
S11308E083E40E943C0210E064E0610F83E40E9410
S11308F0AC0281110FC0F701EE0FFF1FEE0FFF1FB7
S113090081E090E08C0F9D1FE80FF91FE10FF11DAE
S1130910008103C01F5F143039F79FEFE91AF90A09
S113092084E0E816F10411F6802F60960FB6F8946F
S1130930DEBF0FBECDBFDF91CF911F910F91FF900E
S1130940EF90089541E060E082E40E943C0282E07E
S113095090E00E94980840E060E082E40E943C023B
S113096082E090E00E9498080895682F81E40E9434
S1130970010340E061E082E40E943C020E94A20480
S1130980089541E060E081E40E94CC0141E061E02F
S113099081E40E94CC0141E062E081E40E94CC0148
S11309A041E063E081E40E94CC0141E064E081E441
S11309B00E94CC0141E065E081E40E94CC0141E069
S11309C066E081E40E94CC0141E067E081E40E949A
S11309D0CC0141E060E082E40E94CC0141E062E0AD
S11309E082E40E94CC0141E061E082E40E94CC01F7
S11309F040E062E082E40E943C0288E30E94B50485
S1130A0081E00E94B5048EE00E94B5048AE090E083
S1130A100E9498080895682F81E40E94010341E030
S1130A2061E082E40E943C020E94A2040895CF93F4
S1130A30DF93EC018881882331F021960E940B0515
S1130A4089918111FBCFDF91CF91089581E00E94BC
S1130A50B5040895813019F48FE7860F06C08230FB
S1130A6019F48FEB860F01C080E80E94B504089545
S1130A7041E00E94CC01089541E00E943C020895A7
S1130A8040E00E943C020895CF930E94C1040E945A
S1130A90FF030E9481080E9441008EED90E00E94B5
S1130AA0170588EE93E00E9498080E9426050E948C
S1130AB06A050E941F06C82F813319F40E945B0641
S1130AC002C00E941E078C2F0E94D80780E090E08D
S1130AD0CF910895CF92DF92EF92FF921F93CF931D
S1130AE0DF9300D000D0CDB7DEB782E091E00E9462
S1130AF0A5038F3F09F097C00E94260585EE90E07C
S1130B000E94170561E082E00E942A058FEE90E0C2
S1130B100E94170588EE93E00E9498080E9426051B
S1130B208AEF90E00E94170561E082E00E942A05A6
S1130B3089E091E00E9417058FEF89838A838B8374
S1130B408C83CE0101967C016C011CE00E943C0464
S1130B508F3FE1F3F60181936F010E940B0584E658
S1130B6090E00E949808612F82E00E942A058AE2A0
S1130B700E940B0584E690E00E9498081F5F1031E4
S1130B8029F744E050E0BE016F5F7F4F82E091E0BF
S1130B900E94C7030E94260585E191E00E94170583
S1130BA088EE93E00E9498080E94260580E291E076
S1130BB00E94170561E082E00E942A058EE291E01E
S1130BC00E9417051BE00E943C048F3FE1F3F701EC
S1130BD081937F010E940B0584E690E00E949808AF
S1130BE0612F82E00E942A058AE20E940B0584E6B6
S1130BF090E00E9498081F5F1F3029F744E050E0FE
S1130C00BE016F5F7F4F86E091E00E94C7030E94A0
S1130C10260585E191E00E94170588EE93E00E9485
S1130C2098080E9426050F900F900F900F90DF9167
S1130C30CF911F91FF90EF90DF90CF900895CF93C5
S1130C400E94260589E391E00E94170561E082E095
S1130C500E942A0586E491E00E94170569E082E07B
S1130C600E942A058EE491E00E9417050E943C042C
S1130C70C82F8F3FD9F38FEC8C0F823020F40E9461
S1130C8026058C2F16C00E94260582E390E00E9460
S1130C90980885E591E00E94170561E082E00E94D2
S1130CA02A0585E691E00E94170588EE93E00E94EC
S1130CB09808CF910895DF92EF92FF920F931F93BC
S1130CC0CF93DF93CDB7DEB728970FB6F894DEBF86
S1130CD00FBECDBF84E690E00E9498080FEF8FE628
S1130CE091E00E94170564E082E00E942A058BE7E8
S1130CF091E00E94170509830A830B830C83CE01BC
S1130D0001967C011AE00E943C048F3FE1F3F70155
S1130D1081937F010E940B0584E690E00E9498086D
S1130D20612F82E00E942A058AE20E940B0584E674
S1130D3090E00E9498081F5F1E3029F70D830E83F0
S1130D400F83088744E050E0BE016B5F7F4F82E071
S1130D5091E00E94AB0344E050E0BE016B5F7F4F23
S1130D6082E091E00E94AB0344E0BE016B5F7F4FE1
S1130D70CE0101960E94DD038130A9F40E9426056C
S1130D8082E891E00E94170561E082E00E942A0552
S1130D908DE891E00E94170588EE93E00E94980880
S1130DA00E9426053DC0D394F3E0DF1224C00E94C4
S1130DB0260588E991E00E94170582E390E00E94ED
S1130DC0980862E084E40E94380562E084E40E94AA
S1130DD03C0588E99AE30E94980862E084E40E9452
S1130DE0380562E084E40E9440050E942605689468
S1130DF0DD24D1F874CF0E9426058EE991E00E948B
S1130E00170561E082E00E942A0585E691E00E94D0
S1130E10170588EE93E00E9498080E9426055FCF8C
S1130E2028960FB6F894DEBF0FBECDBFDF91CF91E9
S1130E301F910F91FF90EF90DF900895DF92EF9252
S1130E40FF920F931F93CF93DF93CDB7DEB728970D
S1130E500FB6F894DEBF0FBECDBF88EC90E00E94C1
S1130E6098080FEF8FE691E00E94170564E082E096
S1130E700E942A0589EA91E00E94170509830A83E2
S1130E800B830C83CE0101967C011AE00E943C0482
S1130E908F3FE1F3F70181937F010E940B0584E604
S1130EA090E00E949808612F82E00E942A058AE25D
S1130EB00E940B0584E690E00E9498081F5F1E3094
S1130EC029F70D830E830F83088744E050E0BE01A9
S1130ED06B5F7F4F86E091E00E94AB0344E0BE016C
S1130EE06B5F7F4FCE0101960E94DD038130A9F430
S1130EF00E94260582E891E00E94170561E082E0E5
S1130F000E942A058DE891E00E94170588EE93E07F
S1130F100E9498080E9426053DC0D394F3E0DF1296
S1130F2024C00E94260588E991E00E94170582E307
S1130F3090E00E94980862E084E40E94380562E030
S1130F4084E40E943C0588E99AE30E94980862E0E0
S1130F5084E40E94380562E084E40E9440050E9413
S1130F6026056894DD24D1F87DCF0E9426058EE9FC
S1130F7091E00E94170561E082E00E942A0585E65F
S1130F8091E00E94170588EE93E00E9498080E9461
S1130F90260568CF28960FB6F894DEBF0FBECDBFE6
S1130FA0DF91CF911F910F91FF90EF90DF90089503
S1130FB0CF93813309F058C082E390E00E949808EF
S1130FC060E084E40E94380560E084E40E943C050B
S1130FD00E94260582E390E00E94980880EB91E04D
S1130FE00E9417056AE081E00E942A0588EB91E0DF
S1130FF00E94170561E082E00E942A0580EC91E0DE
S11310000E9417056AE082E00E942A0588EC91E0BC
S11310100E9417050E943C048F3FE1F39FEC980F58
S11310209430A8F4813319F40E94CE00C5CF8233E2
S113103019F40E942301C0CF833319F40E9477016D
S1131040BBCF843309F05BC00E946600B5CF0E9419
S1131050260580E990E00E94170588EE93E00E943F
S113106098080E942605A8CF61E084E40E94380510
S113107061E084E40E943C050E94260582E390E03E
S11310800E94980880EB91E00E9417056AE081E0D5
S11310900E942A0588EB91E00E94170561E082E036
S11310A00E942A0580EC91E00E9417050E943C04EE
S11310B0C82F8F3FD9F382E390E00E9498088FEC09
S11310C08C0F833078F4C13319F40E94CE00D4CF4E
S11310D0C23319F40E942301CFCFC33381F40E9499
S11310E07701CACF0E94260580E990E00E94170587
S11310F088EE93E00E9498080E942605BDCFCF9108
S1131100089587B3806B87BB8DB181658DB90895D0
S11311108FB9779BFECF8FB108958EB588608EBD51
S11311208EB583608EBD8DE790E09BBD8ABD08952A
S1131130CF93DF93EC010E948D08209769F020E0A3
S113114030E088B7806188BF08B604FEFDCF2F5F0A
S11311503F4FC217D307A9F7DF91CF910895F894B1
S1051160FFCFBB
S1131162FF3738392F3435362A3132332D41303D69
S11311722B61697220636F6E646174696F6E0031F2
S11311823A6F6E00323A6F666600333A72657400E3
S1131192696E636F7265637420696E70757400633F
S11311A26F6E74726F6C6C20726F6D3100333A52D1
S11311B2455400696E636F7272637420696E707550
S11311C27400636F6E74726F6C6C20726F6D320098
S11311D2636F6E74726F6C6C20726F6D330077651F
S11311E26C636F6D004C6F67696E20666F72006688
S11311F2697273742074696D650053657420416467
S11312026D696E20706173730041646D696E207044
S11312126173733A0050617373205361766564009D
S11312225365742047657374207061737300476556
S1131232737420706173733A00706C656173652016
S113124263686F736500313A61646D696E00323AA6
S11312524775737400696E636F7272656374206993
S11312626E7075740074727920616761696E0065CD
S11312726E746572205F706173730061646D696E70
S11312823A00526967687420706173730047554568
S11312925354206D6F646500626C6F636B007772E8
S11312A26F6E6720706173730047554553543A005B
S11312B2313A726F6F6D3100323A726F6F6D320074
S11312C2333A726F6F6D3300343A6169725F63004F
S9030000FC
